{
  "contractName": "Storage",
  "abi": [
    {
      "inputs": [],
      "name": "val",
      "outputs": [
        {
          "internalType": "uint256",
          "name": "",
          "type": "uint256"
        }
      ],
      "stateMutability": "view",
      "type": "function",
      "constant": true
    },
    {
      "inputs": [],
      "name": "getVal",
      "outputs": [
        {
          "internalType": "uint256",
          "name": "",
          "type": "uint256"
        }
      ],
      "stateMutability": "view",
      "type": "function",
      "constant": true
    },
    {
      "inputs": [
        {
          "internalType": "uint256",
          "name": "_val",
          "type": "uint256"
        }
      ],
      "name": "setVal",
      "outputs": [],
      "stateMutability": "nonpayable",
      "type": "function"
    }
  ],
  "bytecode": "0x608060405234801561001057600080fd5b5060c28061001f6000396000f3fe6080604052348015600f57600080fd5b5060043610603c5760003560e01c80633c6bb4361460415780633d4197f0146059578063e1cb0e52146075575b600080fd5b6047607b565b60408051918252519081900360200190f35b607360048036036020811015606d57600080fd5b50356081565b005b60476086565b60005481565b600055565b6000549056fea26469706673582212203cfec1155d45f95d658ebcac5aa8d55c53404f72bd753d80da4ca2c74a09c80c64736f6c634300060c0033",
  "immutableReferences": {},
  "source": "contract Storage {\n    uint public val;\n\n    function getVal () view public returns (uint) {\n        return val;\n    }\n\n    function setVal(uint _val) public {\n        val =_val;\n    }\n}",
  "sourcePath": "/home/tony/qtum/api/contracts/Storage.sol",
  "compiler": {
    "name": "solc",
    "version": "0.6.12+commit.27d51765.Emscripten.clang"
  },
  "schemaVersion": "3.3.4",
  "updatedAt": "2021-04-12T21:26:17.073Z",
  "networkType": "ethereum",
  "devdoc": {
    "kind": "dev",
    "methods": {},
    "version": 1
  },
  "userdoc": {
    "kind": "user",
    "methods": {},
    "version": 1
  }
}